:040000000C94003A22
:1074000011248FEF98E09EBF8DBF94B714BE892FD3
:107410008D7011F0892FE5D190E89093F20083E907
:107420008093F2009093610081E0809361009093DB
:10743000EE0087E48093EE0096BF8CE486BF85E083
:107440008093810088E18093C10086E08093C20030
:1074500080E18093C4008DE0AED1259A96E020E3D0
:107460003CEF51E040E2309385002093840056BB0E
:10747000B09BFECF85B1842785B9A895915099F727
:10748000662477244301CC24DD2464E9A62E51E050
:10749000252E312C412C512C7DD1813461F47AD1AF
:1074A000182F8FD1123829F1113811F485E001C05D
:1074B00083E068D164C1823411F484E103C085346F
:1074C00019F485E086D15BC1853579F463D1E82E66
:1074D000FF2460D1082F10E0102F00270E291F294C
:1074E000000F111F6ED168014AC1863521F484E076
:1074F00070D180E0DECF843609F0C5C04BD190E07A
:10750000F82EEE2447D1E80EF11C44D1B82EE70145
:1075100000E011E03FD1F80181938F012197D1F76D
:1075200011BC8D2D992782BD82B586958695282F11
:10753000D401C301022E04C0B695A79597958795EF
:107540000A94D2F780FD15C0F6E4BF1691F4D2017B
:10755000C10104C0880F991FAA1FBB1F2A95D2F72B
:10756000682A792A8A2A9B2AAFBA82E98FBB00004F
:10757000000027D1E5E4BE16B1F4960110C021BD8C
:107580002F5F3F4F832F992782BDC050DF4F8881E7
:1075900080BDF4E0FFBB82E08FBBCF5FD040CE1553
:1075A000DF0568F3DBC0C114D10409F04EC060915F
:1075B000000170910101872F90E0982F8827262FD6
:1075C00030E0822B932B909385018093840140912E
:1075D000020150910301852F90E0982F8827242FD6
:1075E00030E0822B932B909387018093860120912A
:1075F00018018091190190E0982F882730E0822BA4
:10760000932B909389018093880120911A01809196
:107610001B0190E0982F882730E0822B932B9093CA
:107620008B0180938A016093180170931901409334
:107630001A0150931B018CE080930001A09201017C
:1076400010920201EAE3E0930301E0E0F1E011BCF3
:10765000808180BD81E081BD818180BD82E081BD6E
:10766000828180BD83E081BD838180BD8E2F8C0DA2
:1076700081BD84EA8FBB82EA8FBB349681E0E0381B
:10768000F80729F77CC0843709F06BC083D090E0FD
:10769000F82EEE247FD0E80EF11C7CD0182F91D06C
:1076A000153489F4E6018701C1BD21968D2F9927F4
:1076B00082BDE1E0EFBB0000000080B563D0015067
:1076C000104091F74BC0E6018701209729F4809183
:1076D0008401909185013CC0C130D10529F480918D
:1076E0008401909185010FC0C230D10529F48091A9
:1076F0008601909187012CC0C330D10539F4809167
:10770000860190918701892F992722C0C831D10520
:1077100029F480918801909189011AC0C931D1055D
:1077200029F48091880190918901EDCFCA31D1056A
:1077300029F480918A0190918B010AC0CB31D10547
:1077400029F480918A0190918B01DDCFFE01849113
:10775000219618D00150104009F0B7CFCE0CDF1C95
:107760000EC0853739F42DD08EE10CD085E90AD0D2
:107770008FE09FCE813511F48CE01DD022D080E1C6
:1077800001D08ACE982F8091C00085FFFCCF9093C6
:10779000C60008958091C00087FFFCCF8091C00093
:1077A00084FD01C0A8958091C60008959AE29A953B
:1077B000F1F708950895E0E6F0E098E19083808382
:1077C0000895E8DF803219F08DE0F5DFFFCF84E126
:1077D000D9CF1F93182FDEDF1150E9F7F2DF1F9189
:0E77E0000895282E80E0E7DFECE0FF270994F3
:0277FE00000584
:040000030000740085
:00000001FF
