
optiboot_lgt8f328ps20.elf:     file format elf32-avr

Sections:
Idx Name          Size      VMA       LMA       File off  Algn
  0 .text         000003ee  00007400  00007400  00000054  2**1
                  CONTENTS, ALLOC, LOAD, READONLY, CODE
  1 .bootv        00000004  00000000  00000000  00000442  2**0
                  CONTENTS, READONLY
  2 .version      00000002  000077fe  000077fe  00000446  2**0
                  CONTENTS, READONLY
  3 .debug_aranges 00000028  00000000  00000000  00000448  2**0
                  CONTENTS, READONLY, DEBUGGING
  4 .debug_pubnames 0000006d  00000000  00000000  00000470  2**0
                  CONTENTS, READONLY, DEBUGGING
  5 .debug_info   00000337  00000000  00000000  000004dd  2**0
                  CONTENTS, READONLY, DEBUGGING
  6 .debug_abbrev 000001a6  00000000  00000000  00000814  2**0
                  CONTENTS, READONLY, DEBUGGING
  7 .debug_line   000005ae  00000000  00000000  000009ba  2**0
                  CONTENTS, READONLY, DEBUGGING
  8 .debug_frame  00000090  00000000  00000000  00000f68  2**2
                  CONTENTS, READONLY, DEBUGGING
  9 .debug_str    00000170  00000000  00000000  00000ff8  2**0
                  CONTENTS, READONLY, DEBUGGING
 10 .debug_loc    00000344  00000000  00000000  00001168  2**0
                  CONTENTS, READONLY, DEBUGGING
 11 .debug_ranges 00000080  00000000  00000000  000014ac  2**0
                  CONTENTS, READONLY, DEBUGGING

Disassembly of section .text:

00007400 <main>:
# define UART_SRL UBRR3L
# define UART_UDR UDR3
#endif

/* main program starts here */
int main(void) {
    7400:	11 24       	eor	r1, r1
  //  r1 contains zero
  //
  // If not, uncomment the following instructions:
  // cli();
  asm volatile ("clr __zero_reg__");
  SP=RAMEND;  // This is done by hardware reset
    7402:	8f ef       	ldi	r24, 0xFF	; 255
    7404:	98 e0       	ldi	r25, 0x08	; 8
    7406:	9e bf       	out	0x3e, r25	; 62
    7408:	8d bf       	out	0x3d, r24	; 61

  // Adaboot no-wait mod
  ch = MCUSR;
    740a:	94 b7       	in	r25, 0x34	; 52
  MCUSR = 0;
    740c:	14 be       	out	0x34, r1	; 52
  if (ch & (_BV(WDRF) | _BV(BORF) | _BV(PORF)))
    740e:	89 2f       	mov	r24, r25
    7410:	8d 70       	andi	r24, 0x0D	; 13
    7412:	11 f0       	breq	.+4      	; 0x7418 <main+0x18>
	appStart(ch);
    7414:	89 2f       	mov	r24, r25
    7416:	e5 d1       	rcall	.+970    	; 0x77e2 <appStart>

  // WDT clock by 32KHz IRC
  PMCR = 0x80;
    7418:	90 e8       	ldi	r25, 0x80	; 128
    741a:	90 93 f2 00 	sts	0x00F2, r25
  PMCR = 0x93;
    741e:	83 e9       	ldi	r24, 0x93	; 147
    7420:	80 93 f2 00 	sts	0x00F2, r24

  // system clock: 16MHz system clock
  CLKPR = 0x80;
    7424:	90 93 61 00 	sts	0x0061, r25
  CLKPR = 0x01;
    7428:	81 e0       	ldi	r24, 0x01	; 1
    742a:	80 93 61 00 	sts	0x0061, r24

  // switch usart to PD5/6
  // switch spss to PB1
  // switch oc1b to PF3/PD3
  PMX0 = 0x80;
    742e:	90 93 ee 00 	sts	0x00EE, r25
  PMX0 = 0x47;
    7432:	87 e4       	ldi	r24, 0x47	; 71
    7434:	80 93 ee 00 	sts	0x00EE, r24

  // enable 1KB E2PROM (for LGT8F328P)
  ECCR = 0x80;
    7438:	96 bf       	out	0x36, r25	; 54
  ECCR = 0x4C;
    743a:	8c e4       	ldi	r24, 0x4C	; 76
    743c:	86 bf       	out	0x36, r24	; 54

#if LED_START_FLASHES > 0
  // Set up Timer 1 for timeout counter
  TCCR1B = _BV(CS12) | _BV(CS10); // div 1024
    743e:	85 e0       	ldi	r24, 0x05	; 5
    7440:	80 93 81 00 	sts	0x0081, r24
  UCSRB = _BV(RXEN) | _BV(TXEN);  // enable Rx & Tx
  UCSRC = _BV(URSEL) | _BV(UCSZ1) | _BV(UCSZ0);  // config USART; 8N1
  UBRRL = (uint8_t)( (F_CPU + BAUD_RATE * 4L) / (BAUD_RATE * 8L) - 1 );
#else
  //UART_SRA = _BV(U2X0); //Double speed mode USART0
  UART_SRB = _BV(RXEN0) | _BV(TXEN0);
    7444:	88 e1       	ldi	r24, 0x18	; 24
    7446:	80 93 c1 00 	sts	0x00C1, r24
  UART_SRC = _BV(UCSZ00) | _BV(UCSZ01);
    744a:	86 e0       	ldi	r24, 0x06	; 6
    744c:	80 93 c2 00 	sts	0x00C2, r24
  //UART_SRL = (uint8_t)( F_CPU / (BAUD_RATE * 8L) - 1 );
  UART_SRL = (uint8_t)( F_CPU / (BAUD_RATE * 16L) - 1 );
    7450:	80 e1       	ldi	r24, 0x10	; 16
    7452:	80 93 c4 00 	sts	0x00C4, r24
#endif
#endif

  // Set up watchdog to trigger after 500ms
  watchdogConfig(WATCHDOG_32MS);
    7456:	8d e0       	ldi	r24, 0x0D	; 13
    7458:	ae d1       	rcall	.+860    	; 0x77b6 <watchdogConfig>

#if (LED_START_FLASHES > 0) || defined(LED_DATA_FLASH)
  /* Set LED pin as output */
  LED_DDR |= _BV(LED);
    745a:	25 9a       	sbi	0x04, 5	; 4
    745c:	96 e0       	ldi	r25, 0x06	; 6
}

#if LED_START_FLASHES > 0
void flash_led(uint8_t count) {
  do {
    TCNT1 = -(F_CPU/(1024*16));
    745e:	20 e3       	ldi	r18, 0x30	; 48
    7460:	3c ef       	ldi	r19, 0xFC	; 252
    TIFR1 = _BV(TOV1);
    7462:	51 e0       	ldi	r21, 0x01	; 1
    while(!(TIFR1 & _BV(TOV1)));
    LED_PORT ^= _BV(LED);
    7464:	40 e2       	ldi	r20, 0x20	; 32
}

#if LED_START_FLASHES > 0
void flash_led(uint8_t count) {
  do {
    TCNT1 = -(F_CPU/(1024*16));
    7466:	30 93 85 00 	sts	0x0085, r19
    746a:	20 93 84 00 	sts	0x0084, r18
    TIFR1 = _BV(TOV1);
    746e:	56 bb       	out	0x16, r21	; 22
    while(!(TIFR1 & _BV(TOV1)));
    7470:	b0 9b       	sbis	0x16, 0	; 22
    7472:	fe cf       	rjmp	.-4      	; 0x7470 <main+0x70>
    LED_PORT ^= _BV(LED);
    7474:	85 b1       	in	r24, 0x05	; 5
    7476:	84 27       	eor	r24, r20
    7478:	85 b9       	out	0x05, r24	; 5
}
#endif

// Watchdog functions. These are only safe with interrupts turned off.
void watchdogReset() {
  __asm__ __volatile__ (
    747a:	a8 95       	wdr
    TCNT1 = -(F_CPU/(1024*16));
    TIFR1 = _BV(TOV1);
    while(!(TIFR1 & _BV(TOV1)));
    LED_PORT ^= _BV(LED);
    watchdogReset();
  } while (--count);
    747c:	91 50       	subi	r25, 0x01	; 1
    747e:	99 f7       	brne	.-26     	; 0x7466 <main+0x66>
    7480:	66 24       	eor	r6, r6
    7482:	77 24       	eor	r7, r7
    7484:	43 01       	movw	r8, r6
    7486:	cc 24       	eor	r12, r12
    7488:	dd 24       	eor	r13, r13
	  buff[26] = buff[2];
	  buff[27] = buff[3];
	
	  // Add jump to bootloader at RESET vector
	  buff[0] = 0x0c;
	  buff[1] = 0x94; // jmp 
    748a:	64 e9       	ldi	r22, 0x94	; 148
    748c:	a6 2e       	mov	r10, r22
      EEARL = 0; 
      EEARH = address >> 8;
      ch = EEARH >> 2;	// 1KB page size

      if((0 == (pmask & (((uint32_t)1 << ch)))) && bval == 'F') { 
	pmask |= ((uint32_t)1 << ch);
    748e:	51 e0       	ldi	r21, 0x01	; 1
    7490:	25 2e       	mov	r2, r21
    7492:	31 2c       	mov	r3, r1
    7494:	41 2c       	mov	r4, r1
    7496:	51 2c       	mov	r5, r1
  pmask = 0;

  /* Forever loop */
  for (;;) {
    /* get character from UART */
    ch = getch();
    7498:	7d d1       	rcall	.+762    	; 0x7794 <getch>

    if(ch == STK_GET_PARAMETER) {
    749a:	81 34       	cpi	r24, 0x41	; 65
    749c:	61 f4       	brne	.+24     	; 0x74b6 <main+0xb6>
      unsigned char which = getch();
    749e:	7a d1       	rcall	.+756    	; 0x7794 <getch>
    74a0:	18 2f       	mov	r17, r24
      verifySpace();
    74a2:	8f d1       	rcall	.+798    	; 0x77c2 <verifySpace>
      if (which == 0x82) {
    74a4:	12 38       	cpi	r17, 0x82	; 130
    74a6:	29 f1       	breq	.+74     	; 0x74f2 <main+0xf2>
	/*
	 * Send optiboot version as "minor SW version"
	 */
	putch(OPTIBOOT_MINVER);
      } else if (which == 0x81) {
    74a8:	11 38       	cpi	r17, 0x81	; 129
    74aa:	11 f4       	brne	.+4      	; 0x74b0 <main+0xb0>
	  putch(OPTIBOOT_MAJVER);
    74ac:	85 e0       	ldi	r24, 0x05	; 5
    74ae:	01 c0       	rjmp	.+2      	; 0x74b2 <main+0xb2>
      } else {
	/*
	 * GET PARAMETER returns a generic 0x03 reply for
         * other parameters - enough to keep Avrdude happy
	 */
	putch(0x03);
    74b0:	83 e0       	ldi	r24, 0x03	; 3
    74b2:	68 d1       	rcall	.+720    	; 0x7784 <putch>
    74b4:	64 c1       	rjmp	.+712    	; 0x777e <main+0x37e>
      }
    }
    else if(ch == STK_SET_DEVICE) {
    74b6:	82 34       	cpi	r24, 0x42	; 66
    74b8:	11 f4       	brne	.+4      	; 0x74be <main+0xbe>
      // SET DEVICE is ignored
      getNch(20);
    74ba:	84 e1       	ldi	r24, 0x14	; 20
    74bc:	03 c0       	rjmp	.+6      	; 0x74c4 <main+0xc4>
    }
    else if(ch == STK_SET_DEVICE_EXT) {
    74be:	85 34       	cpi	r24, 0x45	; 69
    74c0:	19 f4       	brne	.+6      	; 0x74c8 <main+0xc8>
      // SET DEVICE EXT is ignored
      getNch(5);
    74c2:	85 e0       	ldi	r24, 0x05	; 5
    74c4:	86 d1       	rcall	.+780    	; 0x77d2 <verifySpace+0x10>
    74c6:	5b c1       	rjmp	.+694    	; 0x777e <main+0x37e>
    }
    else if(ch == STK_LOAD_ADDRESS) {
    74c8:	85 35       	cpi	r24, 0x55	; 85
    74ca:	79 f4       	brne	.+30     	; 0x74ea <main+0xea>
      // LOAD ADDRESS
      uint16_t newAddress;
      newAddress = getch();
    74cc:	63 d1       	rcall	.+710    	; 0x7794 <getch>
      newAddress = (newAddress & 0xff) | (getch() << 8);
    74ce:	e8 2e       	mov	r14, r24
    74d0:	ff 24       	eor	r15, r15
    74d2:	60 d1       	rcall	.+704    	; 0x7794 <getch>
    74d4:	08 2f       	mov	r16, r24
    74d6:	10 e0       	ldi	r17, 0x00	; 0
    74d8:	10 2f       	mov	r17, r16
    74da:	00 27       	eor	r16, r16
    74dc:	0e 29       	or	r16, r14
    74de:	1f 29       	or	r17, r15
#ifdef RAMPZ
      // Transfer top bit to RAMPZ
      RAMPZ = (newAddress & 0x8000) ? 1 : 0;
#endif
      newAddress += newAddress; // Convert from word address to byte address
    74e0:	00 0f       	add	r16, r16
    74e2:	11 1f       	adc	r17, r17
      address = newAddress;
      verifySpace();
    74e4:	6e d1       	rcall	.+732    	; 0x77c2 <verifySpace>
    74e6:	68 01       	movw	r12, r16
    74e8:	4a c1       	rjmp	.+660    	; 0x777e <main+0x37e>
    }
    else if(ch == STK_UNIVERSAL) {
    74ea:	86 35       	cpi	r24, 0x56	; 86
    74ec:	21 f4       	brne	.+8      	; 0x74f6 <main+0xf6>
      // UNIVERSAL command is ignored
      getNch(4);
    74ee:	84 e0       	ldi	r24, 0x04	; 4
    74f0:	70 d1       	rcall	.+736    	; 0x77d2 <verifySpace+0x10>
      putch(0x00);
    74f2:	80 e0       	ldi	r24, 0x00	; 0
    74f4:	de cf       	rjmp	.-68     	; 0x74b2 <main+0xb2>
    }
    /* Write memory, length is big endian and is in bytes */
    else if(ch == STK_PROG_PAGE) {
    74f6:	84 36       	cpi	r24, 0x64	; 100
    74f8:	09 f0       	breq	.+2      	; 0x74fc <main+0xfc>
    74fa:	c5 c0       	rjmp	.+394    	; 0x7686 <main+0x286>
      // PROGRAM PAGE - we support flash programming only, not EEPROM
      uint8_t *bufPtr;
      uint8_t bval;
      uint16_t len;
      length = (uint16_t)getch() << 8; /* getlen() */
    74fc:	4b d1       	rcall	.+662    	; 0x7794 <getch>
    74fe:	90 e0       	ldi	r25, 0x00	; 0
    7500:	f8 2e       	mov	r15, r24
    7502:	ee 24       	eor	r14, r14
      length += getch();
    7504:	47 d1       	rcall	.+654    	; 0x7794 <getch>
    7506:	e8 0e       	add	r14, r24
    7508:	f1 1c       	adc	r15, r1
      bval = getch();
    750a:	44 d1       	rcall	.+648    	; 0x7794 <getch>
    750c:	b8 2e       	mov	r11, r24
    750e:	e7 01       	movw	r28, r14
    7510:	00 e0       	ldi	r16, 0x00	; 0
    7512:	11 e0       	ldi	r17, 0x01	; 1
      //if (address < NRWWSTART) __boot_page_erase_short((uint16_t)(void*)address);

      // While that is going on, read in page contents
      bufPtr = buff;
      len = length;
      do *bufPtr++ = getch();
    7514:	3f d1       	rcall	.+638    	; 0x7794 <getch>
    7516:	f8 01       	movw	r30, r16
    7518:	81 93       	st	Z+, r24
    751a:	8f 01       	movw	r16, r30
      while (--len);
    751c:	21 97       	sbiw	r28, 0x01	; 1
    751e:	d1 f7       	brne	.-12     	; 0x7514 <main+0x114>

      EEARL = 0; 
    7520:	11 bc       	out	0x21, r1	; 33
      EEARH = address >> 8;
    7522:	8d 2d       	mov	r24, r13
    7524:	99 27       	eor	r25, r25
    7526:	82 bd       	out	0x22, r24	; 34
      ch = EEARH >> 2;	// 1KB page size
    7528:	82 b5       	in	r24, 0x22	; 34

      if((0 == (pmask & (((uint32_t)1 << ch)))) && bval == 'F') { 
    752a:	86 95       	lsr	r24
    752c:	86 95       	lsr	r24
    752e:	28 2f       	mov	r18, r24
    7530:	d4 01       	movw	r26, r8
    7532:	c3 01       	movw	r24, r6
    7534:	02 2e       	mov	r0, r18
    7536:	04 c0       	rjmp	.+8      	; 0x7540 <main+0x140>
    7538:	b6 95       	lsr	r27
    753a:	a7 95       	ror	r26
    753c:	97 95       	ror	r25
    753e:	87 95       	ror	r24
    7540:	0a 94       	dec	r0
    7542:	d2 f7       	brpl	.-12     	; 0x7538 <main+0x138>
    7544:	80 fd       	sbrc	r24, 0
    7546:	15 c0       	rjmp	.+42     	; 0x7572 <main+0x172>
    7548:	f6 e4       	ldi	r31, 0x46	; 70
    754a:	bf 16       	cp	r11, r31
    754c:	91 f4       	brne	.+36     	; 0x7572 <main+0x172>
	pmask |= ((uint32_t)1 << ch);
    754e:	d2 01       	movw	r26, r4
    7550:	c1 01       	movw	r24, r2
    7552:	04 c0       	rjmp	.+8      	; 0x755c <main+0x15c>
    7554:	88 0f       	add	r24, r24
    7556:	99 1f       	adc	r25, r25
    7558:	aa 1f       	adc	r26, r26
    755a:	bb 1f       	adc	r27, r27
    755c:	2a 95       	dec	r18
    755e:	d2 f7       	brpl	.-12     	; 0x7554 <main+0x154>
    7560:	68 2a       	or	r6, r24
    7562:	79 2a       	or	r7, r25
    7564:	8a 2a       	or	r8, r26
    7566:	9b 2a       	or	r9, r27
      	// do page erase here
      	EECR = 0x94;
    7568:	af ba       	out	0x1f, r10	; 31
      	EECR = 0x92;
    756a:	82 e9       	ldi	r24, 0x92	; 146
    756c:	8f bb       	out	0x1f, r24	; 31
      	__asm__ __volatile__ ("nop" ::); 
    756e:	00 00       	nop
	__asm__ __volatile__ ("nop" ::);      
    7570:	00 00       	nop
      }

      // Read command terminator, start reply
      verifySpace();
    7572:	27 d1       	rcall	.+590    	; 0x77c2 <verifySpace>

      // If only a partial page is to be programmed, the erase might not be complete.
      // So check that here
      //boot_spm_busy_wait();
      if (bval == 'E') {
    7574:	e5 e4       	ldi	r30, 0x45	; 69
    7576:	be 16       	cp	r11, r30
    7578:	b1 f4       	brne	.+44     	; 0x75a6 <main+0x1a6>
    757a:	96 01       	movw	r18, r12
    757c:	10 c0       	rjmp	.+32     	; 0x759e <main+0x19e>
	  for(len = 0; len < length; len++) {
	    //if(address >= 1022)
	 	//break;
	    EEARL = address++;
    757e:	21 bd       	out	0x21, r18	; 33
    7580:	2f 5f       	subi	r18, 0xFF	; 255
    7582:	3f 4f       	sbci	r19, 0xFF	; 255
	    EEARH = address >> 8;
    7584:	83 2f       	mov	r24, r19
    7586:	99 27       	eor	r25, r25
    7588:	82 bd       	out	0x22, r24	; 34
	    EEDR = buff[len];
    758a:	c0 50       	subi	r28, 0x00	; 0
    758c:	df 4f       	sbci	r29, 0xFF	; 255
    758e:	88 81       	ld	r24, Y
    7590:	80 bd       	out	0x20, r24	; 32
	    EECR = 0x04;
    7592:	f4 e0       	ldi	r31, 0x04	; 4
    7594:	ff bb       	out	0x1f, r31	; 31
	    EECR = 0x02;
    7596:	82 e0       	ldi	r24, 0x02	; 2
    7598:	8f bb       	out	0x1f, r24	; 31

      // If only a partial page is to be programmed, the erase might not be complete.
      // So check that here
      //boot_spm_busy_wait();
      if (bval == 'E') {
	  for(len = 0; len < length; len++) {
    759a:	cf 5f       	subi	r28, 0xFF	; 255
    759c:	d0 40       	sbci	r29, 0x00	; 0
    759e:	ce 15       	cp	r28, r14
    75a0:	df 05       	cpc	r29, r15
    75a2:	68 f3       	brcs	.-38     	; 0x757e <main+0x17e>
    75a4:	db c0       	rjmp	.+438    	; 0x775c <main+0x35c>
	    EECR = 0x04;
	    EECR = 0x02;
	  }
      } else {
#ifdef VIRTUAL_BOOT_PARTITION
	if ((uint16_t)(void*)address == 0) {
    75a6:	c1 14       	cp	r12, r1
    75a8:	d1 04       	cpc	r13, r1
    75aa:	09 f0       	breq	.+2      	; 0x75ae <main+0x1ae>
    75ac:	4e c0       	rjmp	.+156    	; 0x764a <main+0x24a>
	  // This is the reset vector page. We need to live-patch the code so the
	  // bootloader runs.
	  //
	  // Move RESET vector to WDT vector
	  rstVect0 = buff[0] | (buff[1] << 8);
    75ae:	60 91 00 01 	lds	r22, 0x0100
    75b2:	70 91 01 01 	lds	r23, 0x0101
    75b6:	87 2f       	mov	r24, r23
    75b8:	90 e0       	ldi	r25, 0x00	; 0
    75ba:	98 2f       	mov	r25, r24
    75bc:	88 27       	eor	r24, r24
    75be:	26 2f       	mov	r18, r22
    75c0:	30 e0       	ldi	r19, 0x00	; 0
    75c2:	82 2b       	or	r24, r18
    75c4:	93 2b       	or	r25, r19
    75c6:	90 93 85 01 	sts	0x0185, r25
    75ca:	80 93 84 01 	sts	0x0184, r24
	  rstVect1 = buff[2] | (buff[3] << 8);
    75ce:	40 91 02 01 	lds	r20, 0x0102
    75d2:	50 91 03 01 	lds	r21, 0x0103
    75d6:	85 2f       	mov	r24, r21
    75d8:	90 e0       	ldi	r25, 0x00	; 0
    75da:	98 2f       	mov	r25, r24
    75dc:	88 27       	eor	r24, r24
    75de:	24 2f       	mov	r18, r20
    75e0:	30 e0       	ldi	r19, 0x00	; 0
    75e2:	82 2b       	or	r24, r18
    75e4:	93 2b       	or	r25, r19
    75e6:	90 93 87 01 	sts	0x0187, r25
    75ea:	80 93 86 01 	sts	0x0186, r24
	  wdtVect0 = buff[24] | (buff[25] << 8);
    75ee:	20 91 18 01 	lds	r18, 0x0118
    75f2:	80 91 19 01 	lds	r24, 0x0119
    75f6:	90 e0       	ldi	r25, 0x00	; 0
    75f8:	98 2f       	mov	r25, r24
    75fa:	88 27       	eor	r24, r24
    75fc:	30 e0       	ldi	r19, 0x00	; 0
    75fe:	82 2b       	or	r24, r18
    7600:	93 2b       	or	r25, r19
    7602:	90 93 89 01 	sts	0x0189, r25
    7606:	80 93 88 01 	sts	0x0188, r24
	  wdtVect1 = buff[26] | (buff[27] << 8);
    760a:	20 91 1a 01 	lds	r18, 0x011A
    760e:	80 91 1b 01 	lds	r24, 0x011B
    7612:	90 e0       	ldi	r25, 0x00	; 0
    7614:	98 2f       	mov	r25, r24
    7616:	88 27       	eor	r24, r24
    7618:	30 e0       	ldi	r19, 0x00	; 0
    761a:	82 2b       	or	r24, r18
    761c:	93 2b       	or	r25, r19
    761e:	90 93 8b 01 	sts	0x018B, r25
    7622:	80 93 8a 01 	sts	0x018A, r24

	  buff[24] = buff[0];
    7626:	60 93 18 01 	sts	0x0118, r22
	  buff[25] = buff[1];
    762a:	70 93 19 01 	sts	0x0119, r23
	  buff[26] = buff[2];
    762e:	40 93 1a 01 	sts	0x011A, r20
	  buff[27] = buff[3];
    7632:	50 93 1b 01 	sts	0x011B, r21
	
	  // Add jump to bootloader at RESET vector
	  buff[0] = 0x0c;
    7636:	8c e0       	ldi	r24, 0x0C	; 12
    7638:	80 93 00 01 	sts	0x0100, r24
	  buff[1] = 0x94; // jmp 
    763c:	a0 92 01 01 	sts	0x0101, r10
	  buff[2] = 0x00;
    7640:	10 92 02 01 	sts	0x0102, r1
	  buff[3] = 0x3a; // 0x7400 (0x3a00) 
    7644:	ea e3       	ldi	r30, 0x3A	; 58
    7646:	e0 93 03 01 	sts	0x0103, r30
    764a:	e0 e0       	ldi	r30, 0x00	; 0
    764c:	f1 e0       	ldi	r31, 0x01	; 1
	}
#endif
      	// Write from programming buffer
	pdword_t wPtr = (pdword_t)buff;
      	for(length = 0; length < SPM_PAGESIZE; length+=4, wPtr++) {
	      EEARL = 0; EEDR = wPtr->byte[0];
    764e:	11 bc       	out	0x21, r1	; 33
    7650:	80 81       	ld	r24, Z
    7652:	80 bd       	out	0x20, r24	; 32
	      EEARL = 1; EEDR = wPtr->byte[1];
    7654:	81 e0       	ldi	r24, 0x01	; 1
    7656:	81 bd       	out	0x21, r24	; 33
    7658:	81 81       	ldd	r24, Z+1	; 0x01
    765a:	80 bd       	out	0x20, r24	; 32
	      EEARL = 2; EEDR = wPtr->byte[2];
    765c:	82 e0       	ldi	r24, 0x02	; 2
    765e:	81 bd       	out	0x21, r24	; 33
    7660:	82 81       	ldd	r24, Z+2	; 0x02
    7662:	80 bd       	out	0x20, r24	; 32
	      EEARL = 3; EEDR = wPtr->byte[3];
    7664:	83 e0       	ldi	r24, 0x03	; 3
    7666:	81 bd       	out	0x21, r24	; 33
    7668:	83 81       	ldd	r24, Z+3	; 0x03
    766a:	80 bd       	out	0x20, r24	; 32
    766c:	8e 2f       	mov	r24, r30
    766e:	8c 0d       	add	r24, r12
	      EEARL = (address + length) & 0xff;
    7670:	81 bd       	out	0x21, r24	; 33
	      EECR = 0xA4;
    7672:	84 ea       	ldi	r24, 0xA4	; 164
    7674:	8f bb       	out	0x1f, r24	; 31
	      EECR = 0xA2;
    7676:	82 ea       	ldi	r24, 0xA2	; 162
    7678:	8f bb       	out	0x1f, r24	; 31
	  buff[3] = 0x3a; // 0x7400 (0x3a00) 
	}
#endif
      	// Write from programming buffer
	pdword_t wPtr = (pdword_t)buff;
      	for(length = 0; length < SPM_PAGESIZE; length+=4, wPtr++) {
    767a:	34 96       	adiw	r30, 0x04	; 4
    767c:	81 e0       	ldi	r24, 0x01	; 1
    767e:	e0 38       	cpi	r30, 0x80	; 128
    7680:	f8 07       	cpc	r31, r24
    7682:	29 f7       	brne	.-54     	; 0x764e <main+0x24e>
    7684:	7c c0       	rjmp	.+248    	; 0x777e <main+0x37e>
	      EECR = 0xA2;
	}
      }
    }
    /* Read memory block mode, length is big endian.  */
    else if(ch == STK_READ_PAGE) {
    7686:	84 37       	cpi	r24, 0x74	; 116
    7688:	09 f0       	breq	.+2      	; 0x768c <main+0x28c>
    768a:	6b c0       	rjmp	.+214    	; 0x7762 <main+0x362>
      // READ PAGE - we only read flash
      uint8_t bval;

      length = getch() << 8;			/* getlen() */
    768c:	83 d0       	rcall	.+262    	; 0x7794 <getch>
    768e:	90 e0       	ldi	r25, 0x00	; 0
    7690:	f8 2e       	mov	r15, r24
    7692:	ee 24       	eor	r14, r14
      length += getch();
    7694:	7f d0       	rcall	.+254    	; 0x7794 <getch>
    7696:	e8 0e       	add	r14, r24
    7698:	f1 1c       	adc	r15, r1
      bval = getch();
    769a:	7c d0       	rcall	.+248    	; 0x7794 <getch>
    769c:	18 2f       	mov	r17, r24

      verifySpace();
    769e:	91 d0       	rcall	.+290    	; 0x77c2 <verifySpace>

      if( bval == 'E') {
    76a0:	15 34       	cpi	r17, 0x45	; 69
    76a2:	89 f4       	brne	.+34     	; 0x76c6 <main+0x2c6>
    76a4:	e6 01       	movw	r28, r12
    76a6:	87 01       	movw	r16, r14
	do {
	    EEARL = address++;
    76a8:	c1 bd       	out	0x21, r28	; 33
    76aa:	21 96       	adiw	r28, 0x01	; 1
	    EEARH = address >> 8;
    76ac:	8d 2f       	mov	r24, r29
    76ae:	99 27       	eor	r25, r25
    76b0:	82 bd       	out	0x22, r24	; 34
	    EECR = 0x01;
    76b2:	e1 e0       	ldi	r30, 0x01	; 1
    76b4:	ef bb       	out	0x1f, r30	; 31
	    __asm__ __volatile__ ("nop" ::);
    76b6:	00 00       	nop
	    __asm__ __volatile__ ("nop" ::);
    76b8:	00 00       	nop
	    putch(EEDR);
    76ba:	80 b5       	in	r24, 0x20	; 32
    76bc:	63 d0       	rcall	.+198    	; 0x7784 <putch>
	} while (--length);
    76be:	01 50       	subi	r16, 0x01	; 1
    76c0:	10 40       	sbci	r17, 0x00	; 0
    76c2:	91 f7       	brne	.-28     	; 0x76a8 <main+0x2a8>
    76c4:	4b c0       	rjmp	.+150    	; 0x775c <main+0x35c>
    76c6:	e6 01       	movw	r28, r12
    76c8:	87 01       	movw	r16, r14
      } else {
      	do {
#ifdef VIRTUAL_BOOT_PARTITION
	   // Undo vector patch in bottom page so verify passes
	   if (address == 0)		ch = rstVect0 & 0xff;
    76ca:	20 97       	sbiw	r28, 0x00	; 0
    76cc:	29 f4       	brne	.+10     	; 0x76d8 <main+0x2d8>
    76ce:	80 91 84 01 	lds	r24, 0x0184
    76d2:	90 91 85 01 	lds	r25, 0x0185
    76d6:	3c c0       	rjmp	.+120    	; 0x7750 <main+0x350>
	   else if (address == 1)	ch = rstVect0 >> 8;
    76d8:	c1 30       	cpi	r28, 0x01	; 1
    76da:	d1 05       	cpc	r29, r1
    76dc:	29 f4       	brne	.+10     	; 0x76e8 <main+0x2e8>
    76de:	80 91 84 01 	lds	r24, 0x0184
    76e2:	90 91 85 01 	lds	r25, 0x0185
    76e6:	0f c0       	rjmp	.+30     	; 0x7706 <main+0x306>
	   else if (address == 2)	ch = rstVect1 & 0xff;
    76e8:	c2 30       	cpi	r28, 0x02	; 2
    76ea:	d1 05       	cpc	r29, r1
    76ec:	29 f4       	brne	.+10     	; 0x76f8 <main+0x2f8>
    76ee:	80 91 86 01 	lds	r24, 0x0186
    76f2:	90 91 87 01 	lds	r25, 0x0187
    76f6:	2c c0       	rjmp	.+88     	; 0x7750 <main+0x350>
	   else if (address == 3)	ch = rstVect1 >> 8;
    76f8:	c3 30       	cpi	r28, 0x03	; 3
    76fa:	d1 05       	cpc	r29, r1
    76fc:	39 f4       	brne	.+14     	; 0x770c <main+0x30c>
    76fe:	80 91 86 01 	lds	r24, 0x0186
    7702:	90 91 87 01 	lds	r25, 0x0187
    7706:	89 2f       	mov	r24, r25
    7708:	99 27       	eor	r25, r25
    770a:	22 c0       	rjmp	.+68     	; 0x7750 <main+0x350>
	   else if (address == 24)	ch = wdtVect0 & 0xff;
    770c:	c8 31       	cpi	r28, 0x18	; 24
    770e:	d1 05       	cpc	r29, r1
    7710:	29 f4       	brne	.+10     	; 0x771c <main+0x31c>
    7712:	80 91 88 01 	lds	r24, 0x0188
    7716:	90 91 89 01 	lds	r25, 0x0189
    771a:	1a c0       	rjmp	.+52     	; 0x7750 <main+0x350>
	   else if (address == 25)	ch = wdtVect0 >> 8;
    771c:	c9 31       	cpi	r28, 0x19	; 25
    771e:	d1 05       	cpc	r29, r1
    7720:	29 f4       	brne	.+10     	; 0x772c <main+0x32c>
    7722:	80 91 88 01 	lds	r24, 0x0188
    7726:	90 91 89 01 	lds	r25, 0x0189
    772a:	ed cf       	rjmp	.-38     	; 0x7706 <main+0x306>
	   else if (address == 26)	ch = wdtVect1 & 0xff;
    772c:	ca 31       	cpi	r28, 0x1A	; 26
    772e:	d1 05       	cpc	r29, r1
    7730:	29 f4       	brne	.+10     	; 0x773c <main+0x33c>
    7732:	80 91 8a 01 	lds	r24, 0x018A
    7736:	90 91 8b 01 	lds	r25, 0x018B
    773a:	0a c0       	rjmp	.+20     	; 0x7750 <main+0x350>
	   else if (address == 27)	ch = wdtVect1 >> 8;
    773c:	cb 31       	cpi	r28, 0x1B	; 27
    773e:	d1 05       	cpc	r29, r1
    7740:	29 f4       	brne	.+10     	; 0x774c <main+0x34c>
    7742:	80 91 8a 01 	lds	r24, 0x018A
    7746:	90 91 8b 01 	lds	r25, 0x018B
    774a:	dd cf       	rjmp	.-70     	; 0x7706 <main+0x306>
	   // Since RAMPZ should already be set, we need to use EPLM directly.
	   // read a Flash and increment the address (may increment RAMPZ)
	   __asm__ ("elpm %0,Z\n" : "=r" (ch) : "z" (address));
	#else
	   // read a Flash byte and increment the address
	   __asm__ ("lpm %0,Z\n" : "=r" (ch) : "z" (address));
    774c:	fe 01       	movw	r30, r28
    774e:	84 91       	lpm	r24, Z+
	   //ch = *((uint8_t *)(0x4000 + address));
	#endif
#endif
	   }
	   address++;
    7750:	21 96       	adiw	r28, 0x01	; 1
           putch(ch);
    7752:	18 d0       	rcall	.+48     	; 0x7784 <putch>
         } while (--length);
    7754:	01 50       	subi	r16, 0x01	; 1
    7756:	10 40       	sbci	r17, 0x00	; 0
    7758:	09 f0       	breq	.+2      	; 0x775c <main+0x35c>
    775a:	b7 cf       	rjmp	.-146    	; 0x76ca <main+0x2ca>
    775c:	ce 0c       	add	r12, r14
    775e:	df 1c       	adc	r13, r15
    7760:	0e c0       	rjmp	.+28     	; 0x777e <main+0x37e>
      }
    }

    /* Get device signature bytes  */
    else if(ch == STK_READ_SIGN) {
    7762:	85 37       	cpi	r24, 0x75	; 117
    7764:	39 f4       	brne	.+14     	; 0x7774 <main+0x374>
      // READ SIGN - return what Avrdude wants to hear
      verifySpace();
    7766:	2d d0       	rcall	.+90     	; 0x77c2 <verifySpace>
      putch(SIGNATURE_0);
    7768:	8e e1       	ldi	r24, 0x1E	; 30
    776a:	0c d0       	rcall	.+24     	; 0x7784 <putch>
      putch(SIGNATURE_1);
    776c:	85 e9       	ldi	r24, 0x95	; 149
    776e:	0a d0       	rcall	.+20     	; 0x7784 <putch>
      putch(SIGNATURE_2);
    7770:	8f e0       	ldi	r24, 0x0F	; 15
    7772:	9f ce       	rjmp	.-706    	; 0x74b2 <main+0xb2>
    }
    else if (ch == STK_LEAVE_PROGMODE) { /* 'Q' */
    7774:	81 35       	cpi	r24, 0x51	; 81
    7776:	11 f4       	brne	.+4      	; 0x777c <main+0x37c>
      // Adaboot no-wait mod
      watchdogConfig(WATCHDOG_16MS);
    7778:	8c e0       	ldi	r24, 0x0C	; 12
    777a:	1d d0       	rcall	.+58     	; 0x77b6 <watchdogConfig>
      verifySpace();
    }
    else {
      // This covers the response to commands like STK_ENTER_PROGMODE
      verifySpace();
    777c:	22 d0       	rcall	.+68     	; 0x77c2 <verifySpace>
    }
    putch(STK_OK);
    777e:	80 e1       	ldi	r24, 0x10	; 16
    7780:	01 d0       	rcall	.+2      	; 0x7784 <putch>
    7782:	8a ce       	rjmp	.-748    	; 0x7498 <main+0x98>

00007784 <putch>:
  }
}

void putch(char ch) {
    7784:	98 2f       	mov	r25, r24
#ifndef SOFT_UART
  while (!(UART_SRA & _BV(UDRE0)));
    7786:	80 91 c0 00 	lds	r24, 0x00C0
    778a:	85 ff       	sbrs	r24, 5
    778c:	fc cf       	rjmp	.-8      	; 0x7786 <putch+0x2>
  UART_UDR = ch;
    778e:	90 93 c6 00 	sts	0x00C6, r25
      [uartBit] "I" (UART_TX_BIT)
    :
      "r25"
  );
#endif
}
    7792:	08 95       	ret

00007794 <getch>:
      [uartBit] "I" (UART_RX_BIT)
    :
      "r25"
);
#else
  while(!(UART_SRA & _BV(RXC0)))
    7794:	80 91 c0 00 	lds	r24, 0x00C0
    7798:	87 ff       	sbrs	r24, 7
    779a:	fc cf       	rjmp	.-8      	; 0x7794 <getch>
    ;
  if (!(UART_SRA & _BV(FE0))) {
    779c:	80 91 c0 00 	lds	r24, 0x00C0
    77a0:	84 fd       	sbrc	r24, 4
    77a2:	01 c0       	rjmp	.+2      	; 0x77a6 <getch+0x12>
}
#endif

// Watchdog functions. These are only safe with interrupts turned off.
void watchdogReset() {
  __asm__ __volatile__ (
    77a4:	a8 95       	wdr
       * don't care that an invalid char is returned...)
       */
    watchdogReset();
  }
  
  ch = UART_UDR;
    77a6:	80 91 c6 00 	lds	r24, 0x00C6
#ifdef LED_DATA_FLASH
  LED_PORT ^= _BV(LED);
#endif

  return ch;
}
    77aa:	08 95       	ret

000077ac <uartDelay>:
#if UART_B_VALUE > 255
#error Baud rate too slow for soft UART
#endif

void uartDelay() {
  __asm__ __volatile__ (
    77ac:	9a e2       	ldi	r25, 0x2A	; 42
    77ae:	9a 95       	dec	r25
    77b0:	f1 f7       	brne	.-4      	; 0x77ae <uartDelay+0x2>
    77b2:	08 95       	ret
    "1:dec r25\n"
    "brne 1b\n"
    "ret\n"
    ::[count] "M" (UART_B_VALUE)
  );
}
    77b4:	08 95       	ret

000077b6 <watchdogConfig>:
  );
}

void watchdogConfig(uint8_t x) {
#if 1
  WDTCSR = _BV(WDCE) | _BV(WDE);
    77b6:	e0 e6       	ldi	r30, 0x60	; 96
    77b8:	f0 e0       	ldi	r31, 0x00	; 0
    77ba:	98 e1       	ldi	r25, 0x18	; 24
    77bc:	90 83       	st	Z, r25
  WDTCSR = x;
    77be:	80 83       	st	Z, r24
#endif
}
    77c0:	08 95       	ret

000077c2 <verifySpace>:
  do getch(); while (--count);
  verifySpace();
}

void verifySpace() {
  if (getch() != CRC_EOP) {
    77c2:	e8 df       	rcall	.-48     	; 0x7794 <getch>
    77c4:	80 32       	cpi	r24, 0x20	; 32
    77c6:	19 f0       	breq	.+6      	; 0x77ce <verifySpace+0xc>
    watchdogConfig(WATCHDOG_32MS);    // shorten WD timeout
    77c8:	8d e0       	ldi	r24, 0x0D	; 13
    77ca:	f5 df       	rcall	.-22     	; 0x77b6 <watchdogConfig>
    77cc:	ff cf       	rjmp	.-2      	; 0x77cc <verifySpace+0xa>
    while (1)			      // and busy-loop so that WD causes
      ;				      //  a reset and app start.
  }
  putch(STK_INSYNC);
    77ce:	84 e1       	ldi	r24, 0x14	; 20
}
    77d0:	d9 cf       	rjmp	.-78     	; 0x7784 <putch>
    "ret\n"
    ::[count] "M" (UART_B_VALUE)
  );
}

void getNch(uint8_t count) {
    77d2:	1f 93       	push	r17

000077d4 <getNch>:
    77d4:	18 2f       	mov	r17, r24
  do getch(); while (--count);
    77d6:	de df       	rcall	.-68     	; 0x7794 <getch>
    77d8:	11 50       	subi	r17, 0x01	; 1
    77da:	e9 f7       	brne	.-6      	; 0x77d6 <getNch+0x2>
  verifySpace();
    77dc:	f2 df       	rcall	.-28     	; 0x77c2 <verifySpace>
}
    77de:	1f 91       	pop	r17
    77e0:	08 95       	ret

000077e2 <appStart>:

void appStart(uint8_t rstFlags) {
  // save the reset flags in the designated register
  //  This can be saved in a main program by putting code in .init0 (which
  //  executes before normal c init code) to save R2 to a global variable.
  __asm__ __volatile__ ("mov r2, %0\n" :: "r" (rstFlags));
    77e2:	28 2e       	mov	r2, r24

  watchdogConfig(WATCHDOG_OFF);
    77e4:	80 e0       	ldi	r24, 0x00	; 0
    77e6:	e7 df       	rcall	.-50     	; 0x77b6 <watchdogConfig>
  __asm__ __volatile__ (
    77e8:	ec e0       	ldi	r30, 0x0C	; 12
    77ea:	ff 27       	eor	r31, r31
    77ec:	09 94       	ijmp
