
optiboot_lgt8f328d.elf:     file format elf32-avr

Sections:
Idx Name          Size      VMA       LMA       File off  Algn
  0 .text         000003d4  00007400  00007400  00000054  2**1
                  CONTENTS, ALLOC, LOAD, READONLY, CODE
  1 .bootv        00000004  00000000  00000000  00000428  2**0
                  CONTENTS, READONLY
  2 .version      00000002  000077fe  000077fe  0000042c  2**0
                  CONTENTS, READONLY
  3 .debug_aranges 00000028  00000000  00000000  0000042e  2**0
                  CONTENTS, READONLY, DEBUGGING
  4 .debug_pubnames 0000006d  00000000  00000000  00000456  2**0
                  CONTENTS, READONLY, DEBUGGING
  5 .debug_info   000002de  00000000  00000000  000004c3  2**0
                  CONTENTS, READONLY, DEBUGGING
  6 .debug_abbrev 0000016a  00000000  00000000  000007a1  2**0
                  CONTENTS, READONLY, DEBUGGING
  7 .debug_line   0000057e  00000000  00000000  0000090b  2**0
                  CONTENTS, READONLY, DEBUGGING
  8 .debug_frame  00000090  00000000  00000000  00000e8c  2**2
                  CONTENTS, READONLY, DEBUGGING
  9 .debug_str    00000160  00000000  00000000  00000f1c  2**0
                  CONTENTS, READONLY, DEBUGGING
 10 .debug_loc    0000030c  00000000  00000000  0000107c  2**0
                  CONTENTS, READONLY, DEBUGGING
 11 .debug_ranges 00000068  00000000  00000000  00001388  2**0
                  CONTENTS, READONLY, DEBUGGING

Disassembly of section .text:

00007400 <main>:
# define UART_SRL UBRR3L
# define UART_UDR UDR3
#endif

/* main program starts here */
int main(void) {
    7400:	11 24       	eor	r1, r1
  //  r1 contains zero
  //
  // If not, uncomment the following instructions:
  // cli();
  asm volatile ("clr __zero_reg__");
  SP=RAMEND;  // This is done by hardware reset
    7402:	8f ef       	ldi	r24, 0xFF	; 255
    7404:	98 e0       	ldi	r25, 0x08	; 8
    7406:	9e bf       	out	0x3e, r25	; 62
    7408:	8d bf       	out	0x3d, r24	; 61
  VDTCR = 0x80;
  VDTCR = 0x4C;
#endif

  // Adaboot no-wait mod
  ch = MCUSR;
    740a:	94 b7       	in	r25, 0x34	; 52
  MCUSR = 0;
    740c:	14 be       	out	0x34, r1	; 52
  if (ch & (_BV(WDRF) | _BV(BORF) | _BV(PORF)))
    740e:	89 2f       	mov	r24, r25
    7410:	8d 70       	andi	r24, 0x0D	; 13
    7412:	11 f0       	breq	.+4      	; 0x7418 <main+0x18>
	appStart(ch);
    7414:	89 2f       	mov	r24, r25
    7416:	d8 d1       	rcall	.+944    	; 0x77c8 <appStart>

  // WDT clock by 32KHz IRC
  PMCR = 0x80;
    7418:	90 e8       	ldi	r25, 0x80	; 128
    741a:	90 93 f2 00 	sts	0x00F2, r25
  PMCR = 0x93;
    741e:	83 e9       	ldi	r24, 0x93	; 147
    7420:	80 93 f2 00 	sts	0x00F2, r24
  // external crsyall flag
  //VDTCR = 0x80;
  //VDTCR = 0x4C;
#else
  // system clock: 16MHz system clock
  CLKPR = 0x80;
    7424:	90 93 61 00 	sts	0x0061, r25
  CLKPR = 0x01;
    7428:	81 e0       	ldi	r24, 0x01	; 1
    742a:	80 93 61 00 	sts	0x0061, r24
#endif

  // enable 1KB E2PROM (for LGT8F328E only)
  ECCR = 0x80;
    742e:	96 bf       	out	0x36, r25	; 54
  ECCR = 0x40;
    7430:	80 e4       	ldi	r24, 0x40	; 64
    7432:	86 bf       	out	0x36, r24	; 54

#if LED_START_FLASHES > 0
  // Set up Timer 1 for timeout counter
  TCCR1B = _BV(CS12) | _BV(CS10); // div 1024
    7434:	85 e0       	ldi	r24, 0x05	; 5
    7436:	80 93 81 00 	sts	0x0081, r24
  UCSRB = _BV(RXEN) | _BV(TXEN);  // enable Rx & Tx
  UCSRC = _BV(URSEL) | _BV(UCSZ1) | _BV(UCSZ0);  // config USART; 8N1
  UBRRL = (uint8_t)( (F_CPU + BAUD_RATE * 4L) / (BAUD_RATE * 8L) - 1 );
#else
  //UART_SRA = _BV(U2X0); //Double speed mode USART0
  UART_SRB = _BV(RXEN0) | _BV(TXEN0);
    743a:	88 e1       	ldi	r24, 0x18	; 24
    743c:	80 93 c1 00 	sts	0x00C1, r24
  UART_SRC = _BV(UCSZ00) | _BV(UCSZ01);
    7440:	86 e0       	ldi	r24, 0x06	; 6
    7442:	80 93 c2 00 	sts	0x00C2, r24
  //UART_SRL = (uint8_t)( F_CPU / (BAUD_RATE * 8L) - 1 );
  UART_SRL = (uint8_t)( F_CPU / (BAUD_RATE * 16L) - 1 );
    7446:	83 e3       	ldi	r24, 0x33	; 51
    7448:	80 93 c4 00 	sts	0x00C4, r24
#endif
#endif

  // Set up watchdog to trigger after 500ms
  watchdogConfig(WATCHDOG_16MS);
    744c:	8c e0       	ldi	r24, 0x0C	; 12
    744e:	a6 d1       	rcall	.+844    	; 0x779c <watchdogConfig>

#if (LED_START_FLASHES > 0) || defined(LED_DATA_FLASH)
  /* Set LED pin as output */
  LED_DDR |= _BV(LED);
    7450:	25 9a       	sbi	0x04, 5	; 4
    7452:	96 e0       	ldi	r25, 0x06	; 6
}

#if LED_START_FLASHES > 0
void flash_led(uint8_t count) {
  do {
    TCNT1 = -(F_CPU/(1024*16));
    7454:	20 e3       	ldi	r18, 0x30	; 48
    7456:	3c ef       	ldi	r19, 0xFC	; 252
    TIFR1 = _BV(TOV1);
    7458:	51 e0       	ldi	r21, 0x01	; 1
    while(!(TIFR1 & _BV(TOV1)));
    LED_PORT ^= _BV(LED);
    745a:	40 e2       	ldi	r20, 0x20	; 32
}

#if LED_START_FLASHES > 0
void flash_led(uint8_t count) {
  do {
    TCNT1 = -(F_CPU/(1024*16));
    745c:	30 93 85 00 	sts	0x0085, r19
    7460:	20 93 84 00 	sts	0x0084, r18
    TIFR1 = _BV(TOV1);
    7464:	56 bb       	out	0x16, r21	; 22
    while(!(TIFR1 & _BV(TOV1)));
    7466:	b0 9b       	sbis	0x16, 0	; 22
    7468:	fe cf       	rjmp	.-4      	; 0x7466 <main+0x66>
    LED_PORT ^= _BV(LED);
    746a:	85 b1       	in	r24, 0x05	; 5
    746c:	84 27       	eor	r24, r20
    746e:	85 b9       	out	0x05, r24	; 5
}
#endif

// Watchdog functions. These are only safe with interrupts turned off.
void watchdogReset() {
  __asm__ __volatile__ (
    7470:	a8 95       	wdr
    TCNT1 = -(F_CPU/(1024*16));
    TIFR1 = _BV(TOV1);
    while(!(TIFR1 & _BV(TOV1)));
    LED_PORT ^= _BV(LED);
    watchdogReset();
  } while (--count);
    7472:	91 50       	subi	r25, 0x01	; 1
    7474:	99 f7       	brne	.-26     	; 0x745c <main+0x5c>
    7476:	88 24       	eor	r8, r8
    7478:	99 24       	eor	r9, r9
    747a:	54 01       	movw	r10, r8
    747c:	cc 24       	eor	r12, r12
    747e:	dd 24       	eor	r13, r13
	  buff[26] = buff[2];
	  buff[27] = buff[3];
	
	  // Add jump to bootloader at RESET vector
	  buff[0] = 0x0c;
	  buff[1] = 0x94; // jmp 
    7480:	64 e9       	ldi	r22, 0x94	; 148
    7482:	66 2e       	mov	r6, r22
      EEARL = 0; 
      EEARH = address >> 8;
      ch = EEARH >> 2;	// 1KB page size

      if((0 == (pmask & (((uint32_t)1 << ch)))) && bval == 'F') { 
	pmask |= ((uint32_t)1 << ch);
    7484:	51 e0       	ldi	r21, 0x01	; 1
    7486:	25 2e       	mov	r2, r21
    7488:	31 2c       	mov	r3, r1
    748a:	41 2c       	mov	r4, r1
    748c:	51 2c       	mov	r5, r1
  pmask = 0;

  /* Forever loop */
  for (;;) {
    /* get character from UART */
    ch = getch();
    748e:	75 d1       	rcall	.+746    	; 0x777a <getch>

    if(ch == STK_GET_PARAMETER) {
    7490:	81 34       	cpi	r24, 0x41	; 65
    7492:	61 f4       	brne	.+24     	; 0x74ac <main+0xac>
      unsigned char which = getch();
    7494:	72 d1       	rcall	.+740    	; 0x777a <getch>
    7496:	18 2f       	mov	r17, r24
      verifySpace();
    7498:	87 d1       	rcall	.+782    	; 0x77a8 <verifySpace>
      if (which == 0x82) {
    749a:	12 38       	cpi	r17, 0x82	; 130
    749c:	29 f1       	breq	.+74     	; 0x74e8 <main+0xe8>
	/*
	 * Send optiboot version as "minor SW version"
	 */
	putch(OPTIBOOT_MINVER);
      } else if (which == 0x81) {
    749e:	11 38       	cpi	r17, 0x81	; 129
    74a0:	11 f4       	brne	.+4      	; 0x74a6 <main+0xa6>
	  putch(OPTIBOOT_MAJVER);
    74a2:	85 e0       	ldi	r24, 0x05	; 5
    74a4:	01 c0       	rjmp	.+2      	; 0x74a8 <main+0xa8>
      } else {
	/*
	 * GET PARAMETER returns a generic 0x03 reply for
         * other parameters - enough to keep Avrdude happy
	 */
	putch(0x03);
    74a6:	83 e0       	ldi	r24, 0x03	; 3
    74a8:	60 d1       	rcall	.+704    	; 0x776a <putch>
    74aa:	5c c1       	rjmp	.+696    	; 0x7764 <main+0x364>
      }
    }
    else if(ch == STK_SET_DEVICE) {
    74ac:	82 34       	cpi	r24, 0x42	; 66
    74ae:	11 f4       	brne	.+4      	; 0x74b4 <main+0xb4>
      // SET DEVICE is ignored
      getNch(20);
    74b0:	84 e1       	ldi	r24, 0x14	; 20
    74b2:	03 c0       	rjmp	.+6      	; 0x74ba <main+0xba>
    }
    else if(ch == STK_SET_DEVICE_EXT) {
    74b4:	85 34       	cpi	r24, 0x45	; 69
    74b6:	19 f4       	brne	.+6      	; 0x74be <main+0xbe>
      // SET DEVICE EXT is ignored
      getNch(5);
    74b8:	85 e0       	ldi	r24, 0x05	; 5
    74ba:	7e d1       	rcall	.+764    	; 0x77b8 <verifySpace+0x10>
    74bc:	53 c1       	rjmp	.+678    	; 0x7764 <main+0x364>
    }
    else if(ch == STK_LOAD_ADDRESS) {
    74be:	85 35       	cpi	r24, 0x55	; 85
    74c0:	79 f4       	brne	.+30     	; 0x74e0 <main+0xe0>
      // LOAD ADDRESS
      uint16_t newAddress;
      newAddress = getch();
    74c2:	5b d1       	rcall	.+694    	; 0x777a <getch>
      newAddress = (newAddress & 0xff) | (getch() << 8);
    74c4:	e8 2e       	mov	r14, r24
    74c6:	ff 24       	eor	r15, r15
    74c8:	58 d1       	rcall	.+688    	; 0x777a <getch>
    74ca:	08 2f       	mov	r16, r24
    74cc:	10 e0       	ldi	r17, 0x00	; 0
    74ce:	10 2f       	mov	r17, r16
    74d0:	00 27       	eor	r16, r16
    74d2:	0e 29       	or	r16, r14
    74d4:	1f 29       	or	r17, r15
#ifdef RAMPZ
      // Transfer top bit to RAMPZ
      RAMPZ = (newAddress & 0x8000) ? 1 : 0;
#endif
      newAddress += newAddress; // Convert from word address to byte address
    74d6:	00 0f       	add	r16, r16
    74d8:	11 1f       	adc	r17, r17
      address = newAddress;
      verifySpace();
    74da:	66 d1       	rcall	.+716    	; 0x77a8 <verifySpace>
    74dc:	68 01       	movw	r12, r16
    74de:	42 c1       	rjmp	.+644    	; 0x7764 <main+0x364>
    }
    else if(ch == STK_UNIVERSAL) {
    74e0:	86 35       	cpi	r24, 0x56	; 86
    74e2:	21 f4       	brne	.+8      	; 0x74ec <main+0xec>
      // UNIVERSAL command is ignored
      getNch(4);
    74e4:	84 e0       	ldi	r24, 0x04	; 4
    74e6:	68 d1       	rcall	.+720    	; 0x77b8 <verifySpace+0x10>
      putch(0x00);
    74e8:	80 e0       	ldi	r24, 0x00	; 0
    74ea:	de cf       	rjmp	.-68     	; 0x74a8 <main+0xa8>
    }
    /* Write memory, length is big endian and is in bytes */
    else if(ch == STK_PROG_PAGE) {
    74ec:	84 36       	cpi	r24, 0x64	; 100
    74ee:	09 f0       	breq	.+2      	; 0x74f2 <main+0xf2>
    74f0:	bd c0       	rjmp	.+378    	; 0x766c <main+0x26c>
      // PROGRAM PAGE - we support flash programming only, not EEPROM
      uint8_t *bufPtr;
      uint8_t bval;
      uint16_t len;
      length = (uint16_t)getch() << 8; /* getlen() */
    74f2:	43 d1       	rcall	.+646    	; 0x777a <getch>
    74f4:	90 e0       	ldi	r25, 0x00	; 0
    74f6:	f8 2e       	mov	r15, r24
    74f8:	ee 24       	eor	r14, r14
      length += getch();
    74fa:	3f d1       	rcall	.+638    	; 0x777a <getch>
    74fc:	e8 0e       	add	r14, r24
    74fe:	f1 1c       	adc	r15, r1
      bval = getch();
    7500:	3c d1       	rcall	.+632    	; 0x777a <getch>
    7502:	78 2e       	mov	r7, r24
    7504:	e7 01       	movw	r28, r14
    7506:	00 e0       	ldi	r16, 0x00	; 0
    7508:	11 e0       	ldi	r17, 0x01	; 1
      //if (address < NRWWSTART) __boot_page_erase_short((uint16_t)(void*)address);

      // While that is going on, read in page contents
      bufPtr = buff;
      len = length;
      do *bufPtr++ = getch();
    750a:	37 d1       	rcall	.+622    	; 0x777a <getch>
    750c:	f8 01       	movw	r30, r16
    750e:	81 93       	st	Z+, r24
    7510:	8f 01       	movw	r16, r30
      while (--len);
    7512:	21 97       	sbiw	r28, 0x01	; 1
    7514:	d1 f7       	brne	.-12     	; 0x750a <main+0x10a>

      EEARL = 0; 
    7516:	11 bc       	out	0x21, r1	; 33
      EEARH = address >> 8;
    7518:	8d 2d       	mov	r24, r13
    751a:	99 27       	eor	r25, r25
    751c:	82 bd       	out	0x22, r24	; 34
      ch = EEARH >> 2;	// 1KB page size
    751e:	82 b5       	in	r24, 0x22	; 34

      if((0 == (pmask & (((uint32_t)1 << ch)))) && bval == 'F') { 
    7520:	86 95       	lsr	r24
    7522:	86 95       	lsr	r24
    7524:	28 2f       	mov	r18, r24
    7526:	d5 01       	movw	r26, r10
    7528:	c4 01       	movw	r24, r8
    752a:	02 2e       	mov	r0, r18
    752c:	04 c0       	rjmp	.+8      	; 0x7536 <main+0x136>
    752e:	b6 95       	lsr	r27
    7530:	a7 95       	ror	r26
    7532:	97 95       	ror	r25
    7534:	87 95       	ror	r24
    7536:	0a 94       	dec	r0
    7538:	d2 f7       	brpl	.-12     	; 0x752e <main+0x12e>
    753a:	80 fd       	sbrc	r24, 0
    753c:	15 c0       	rjmp	.+42     	; 0x7568 <main+0x168>
    753e:	f6 e4       	ldi	r31, 0x46	; 70
    7540:	7f 16       	cp	r7, r31
    7542:	91 f4       	brne	.+36     	; 0x7568 <main+0x168>
	pmask |= ((uint32_t)1 << ch);
    7544:	d2 01       	movw	r26, r4
    7546:	c1 01       	movw	r24, r2
    7548:	04 c0       	rjmp	.+8      	; 0x7552 <main+0x152>
    754a:	88 0f       	add	r24, r24
    754c:	99 1f       	adc	r25, r25
    754e:	aa 1f       	adc	r26, r26
    7550:	bb 1f       	adc	r27, r27
    7552:	2a 95       	dec	r18
    7554:	d2 f7       	brpl	.-12     	; 0x754a <main+0x14a>
    7556:	88 2a       	or	r8, r24
    7558:	99 2a       	or	r9, r25
    755a:	aa 2a       	or	r10, r26
    755c:	bb 2a       	or	r11, r27
      	// do page erase here
      	EECR = 0x94;
    755e:	6f ba       	out	0x1f, r6	; 31
      	EECR = 0x92;
    7560:	82 e9       	ldi	r24, 0x92	; 146
    7562:	8f bb       	out	0x1f, r24	; 31
      	asm("nop"); asm("nop");      
    7564:	00 00       	nop
    7566:	00 00       	nop
      }

      // Read command terminator, start reply
      verifySpace();
    7568:	1f d1       	rcall	.+574    	; 0x77a8 <verifySpace>

      // If only a partial page is to be programmed, the erase might not be complete.
      // So check that here
      //boot_spm_busy_wait();
      if (bval == 'E') {
    756a:	e5 e4       	ldi	r30, 0x45	; 69
    756c:	7e 16       	cp	r7, r30
    756e:	b1 f4       	brne	.+44     	; 0x759c <main+0x19c>
    7570:	96 01       	movw	r18, r12
    7572:	10 c0       	rjmp	.+32     	; 0x7594 <main+0x194>
	  for(len = 0; len < length; len++) {
	    //if(address >= 1022)
	 	//break;
	    EEARL = address++;
    7574:	21 bd       	out	0x21, r18	; 33
    7576:	2f 5f       	subi	r18, 0xFF	; 255
    7578:	3f 4f       	sbci	r19, 0xFF	; 255
	    EEARH = address >> 8;
    757a:	83 2f       	mov	r24, r19
    757c:	99 27       	eor	r25, r25
    757e:	82 bd       	out	0x22, r24	; 34
	    EEDR = buff[len];
    7580:	c0 50       	subi	r28, 0x00	; 0
    7582:	df 4f       	sbci	r29, 0xFF	; 255
    7584:	88 81       	ld	r24, Y
    7586:	80 bd       	out	0x20, r24	; 32
	    EECR = 0x04;
    7588:	f4 e0       	ldi	r31, 0x04	; 4
    758a:	ff bb       	out	0x1f, r31	; 31
	    EECR = 0x02;
    758c:	82 e0       	ldi	r24, 0x02	; 2
    758e:	8f bb       	out	0x1f, r24	; 31

      // If only a partial page is to be programmed, the erase might not be complete.
      // So check that here
      //boot_spm_busy_wait();
      if (bval == 'E') {
	  for(len = 0; len < length; len++) {
    7590:	cf 5f       	subi	r28, 0xFF	; 255
    7592:	d0 40       	sbci	r29, 0x00	; 0
    7594:	ce 15       	cp	r28, r14
    7596:	df 05       	cpc	r29, r15
    7598:	68 f3       	brcs	.-38     	; 0x7574 <main+0x174>
    759a:	d3 c0       	rjmp	.+422    	; 0x7742 <main+0x342>
	    EECR = 0x04;
	    EECR = 0x02;
	  }
      } else {
#ifdef VIRTUAL_BOOT_PARTITION
	if ((uint16_t)(void*)address == 0) {
    759c:	c1 14       	cp	r12, r1
    759e:	d1 04       	cpc	r13, r1
    75a0:	09 f0       	breq	.+2      	; 0x75a4 <main+0x1a4>
    75a2:	4e c0       	rjmp	.+156    	; 0x7640 <main+0x240>
	  // This is the reset vector page. We need to live-patch the code so the
	  // bootloader runs.
	  //
	  // Move RESET vector to WDT vector
	  rstVect0 = buff[0] | (buff[1] << 8);
    75a4:	60 91 00 01 	lds	r22, 0x0100
    75a8:	70 91 01 01 	lds	r23, 0x0101
    75ac:	87 2f       	mov	r24, r23
    75ae:	90 e0       	ldi	r25, 0x00	; 0
    75b0:	98 2f       	mov	r25, r24
    75b2:	88 27       	eor	r24, r24
    75b4:	26 2f       	mov	r18, r22
    75b6:	30 e0       	ldi	r19, 0x00	; 0
    75b8:	82 2b       	or	r24, r18
    75ba:	93 2b       	or	r25, r19
    75bc:	90 93 85 01 	sts	0x0185, r25
    75c0:	80 93 84 01 	sts	0x0184, r24
	  rstVect1 = buff[2] | (buff[3] << 8);
    75c4:	40 91 02 01 	lds	r20, 0x0102
    75c8:	50 91 03 01 	lds	r21, 0x0103
    75cc:	85 2f       	mov	r24, r21
    75ce:	90 e0       	ldi	r25, 0x00	; 0
    75d0:	98 2f       	mov	r25, r24
    75d2:	88 27       	eor	r24, r24
    75d4:	24 2f       	mov	r18, r20
    75d6:	30 e0       	ldi	r19, 0x00	; 0
    75d8:	82 2b       	or	r24, r18
    75da:	93 2b       	or	r25, r19
    75dc:	90 93 87 01 	sts	0x0187, r25
    75e0:	80 93 86 01 	sts	0x0186, r24
	  wdtVect0 = buff[24] | (buff[25] << 8);
    75e4:	20 91 18 01 	lds	r18, 0x0118
    75e8:	80 91 19 01 	lds	r24, 0x0119
    75ec:	90 e0       	ldi	r25, 0x00	; 0
    75ee:	98 2f       	mov	r25, r24
    75f0:	88 27       	eor	r24, r24
    75f2:	30 e0       	ldi	r19, 0x00	; 0
    75f4:	82 2b       	or	r24, r18
    75f6:	93 2b       	or	r25, r19
    75f8:	90 93 89 01 	sts	0x0189, r25
    75fc:	80 93 88 01 	sts	0x0188, r24
	  wdtVect1 = buff[26] | (buff[27] << 8);
    7600:	20 91 1a 01 	lds	r18, 0x011A
    7604:	80 91 1b 01 	lds	r24, 0x011B
    7608:	90 e0       	ldi	r25, 0x00	; 0
    760a:	98 2f       	mov	r25, r24
    760c:	88 27       	eor	r24, r24
    760e:	30 e0       	ldi	r19, 0x00	; 0
    7610:	82 2b       	or	r24, r18
    7612:	93 2b       	or	r25, r19
    7614:	90 93 8b 01 	sts	0x018B, r25
    7618:	80 93 8a 01 	sts	0x018A, r24

	  buff[24] = buff[0];
    761c:	60 93 18 01 	sts	0x0118, r22
	  buff[25] = buff[1];
    7620:	70 93 19 01 	sts	0x0119, r23
	  buff[26] = buff[2];
    7624:	40 93 1a 01 	sts	0x011A, r20
	  buff[27] = buff[3];
    7628:	50 93 1b 01 	sts	0x011B, r21
	
	  // Add jump to bootloader at RESET vector
	  buff[0] = 0x0c;
    762c:	8c e0       	ldi	r24, 0x0C	; 12
    762e:	80 93 00 01 	sts	0x0100, r24
	  buff[1] = 0x94; // jmp 
    7632:	60 92 01 01 	sts	0x0101, r6
	  buff[2] = 0x00;
    7636:	10 92 02 01 	sts	0x0102, r1
	  buff[3] = 0x3a; // 0x7400 (0x3a00) 
    763a:	ea e3       	ldi	r30, 0x3A	; 58
    763c:	e0 93 03 01 	sts	0x0103, r30
    7640:	e0 e0       	ldi	r30, 0x00	; 0
    7642:	f1 e0       	ldi	r31, 0x01	; 1
	}
#endif
      	// Write from programming buffer
	bufPtr = buff;
      	for(length = 0; length < SPM_PAGESIZE; length+=2) {
	      EEARL = 0; EEDR = *bufPtr++;
    7644:	11 bc       	out	0x21, r1	; 33
    7646:	80 81       	ld	r24, Z
    7648:	80 bd       	out	0x20, r24	; 32
	      EEARL = 1; EEDR = *bufPtr++;
    764a:	81 e0       	ldi	r24, 0x01	; 1
    764c:	81 bd       	out	0x21, r24	; 33
    764e:	81 81       	ldd	r24, Z+1	; 0x01
    7650:	80 bd       	out	0x20, r24	; 32
    7652:	8e 2f       	mov	r24, r30
    7654:	8c 0d       	add	r24, r12
	      EEARL = (address + length) & 0xff;
    7656:	81 bd       	out	0x21, r24	; 33
	      EECR = 0xA4;
    7658:	84 ea       	ldi	r24, 0xA4	; 164
    765a:	8f bb       	out	0x1f, r24	; 31
	      EECR = 0xA2;
    765c:	82 ea       	ldi	r24, 0xA2	; 162
    765e:	8f bb       	out	0x1f, r24	; 31
    7660:	32 96       	adiw	r30, 0x02	; 2
	  buff[3] = 0x3a; // 0x7400 (0x3a00) 
	}
#endif
      	// Write from programming buffer
	bufPtr = buff;
      	for(length = 0; length < SPM_PAGESIZE; length+=2) {
    7662:	81 e0       	ldi	r24, 0x01	; 1
    7664:	e0 38       	cpi	r30, 0x80	; 128
    7666:	f8 07       	cpc	r31, r24
    7668:	69 f7       	brne	.-38     	; 0x7644 <main+0x244>
    766a:	7c c0       	rjmp	.+248    	; 0x7764 <main+0x364>
	      EECR = 0xA2;
	}
      }
    }
    /* Read memory block mode, length is big endian.  */
    else if(ch == STK_READ_PAGE) {
    766c:	84 37       	cpi	r24, 0x74	; 116
    766e:	09 f0       	breq	.+2      	; 0x7672 <main+0x272>
    7670:	6b c0       	rjmp	.+214    	; 0x7748 <main+0x348>
      // READ PAGE - we only read flash
      uint8_t bval;

      length = getch() << 8;			/* getlen() */
    7672:	83 d0       	rcall	.+262    	; 0x777a <getch>
    7674:	90 e0       	ldi	r25, 0x00	; 0
    7676:	f8 2e       	mov	r15, r24
    7678:	ee 24       	eor	r14, r14
      length += getch();
    767a:	7f d0       	rcall	.+254    	; 0x777a <getch>
    767c:	e8 0e       	add	r14, r24
    767e:	f1 1c       	adc	r15, r1
      bval = getch();
    7680:	7c d0       	rcall	.+248    	; 0x777a <getch>
    7682:	18 2f       	mov	r17, r24

      verifySpace();
    7684:	91 d0       	rcall	.+290    	; 0x77a8 <verifySpace>

      if( bval == 'E') {
    7686:	15 34       	cpi	r17, 0x45	; 69
    7688:	89 f4       	brne	.+34     	; 0x76ac <main+0x2ac>
    768a:	e6 01       	movw	r28, r12
    768c:	87 01       	movw	r16, r14
	do {
	    EEARL = address++;
    768e:	c1 bd       	out	0x21, r28	; 33
    7690:	21 96       	adiw	r28, 0x01	; 1
	    EEARH = address >> 8;
    7692:	8d 2f       	mov	r24, r29
    7694:	99 27       	eor	r25, r25
    7696:	82 bd       	out	0x22, r24	; 34
	    EECR = 0x01;
    7698:	e1 e0       	ldi	r30, 0x01	; 1
    769a:	ef bb       	out	0x1f, r30	; 31
	    asm("nop"); asm("nop");
    769c:	00 00       	nop
    769e:	00 00       	nop
	    //if( address >= 1022)
		//    putch(0xff);
	    //else
	    putch(EEDR);
    76a0:	80 b5       	in	r24, 0x20	; 32
    76a2:	63 d0       	rcall	.+198    	; 0x776a <putch>
	} while (--length);
    76a4:	01 50       	subi	r16, 0x01	; 1
    76a6:	10 40       	sbci	r17, 0x00	; 0
    76a8:	91 f7       	brne	.-28     	; 0x768e <main+0x28e>
    76aa:	4b c0       	rjmp	.+150    	; 0x7742 <main+0x342>
    76ac:	e6 01       	movw	r28, r12
    76ae:	87 01       	movw	r16, r14
      } else {
      	do {
#ifdef VIRTUAL_BOOT_PARTITION
	   // Undo vector patch in bottom page so verify passes
	   if (address == 0)		ch = rstVect0 & 0xff;
    76b0:	20 97       	sbiw	r28, 0x00	; 0
    76b2:	29 f4       	brne	.+10     	; 0x76be <main+0x2be>
    76b4:	80 91 84 01 	lds	r24, 0x0184
    76b8:	90 91 85 01 	lds	r25, 0x0185
    76bc:	3c c0       	rjmp	.+120    	; 0x7736 <main+0x336>
	   else if (address == 1)	ch = rstVect0 >> 8;
    76be:	c1 30       	cpi	r28, 0x01	; 1
    76c0:	d1 05       	cpc	r29, r1
    76c2:	29 f4       	brne	.+10     	; 0x76ce <main+0x2ce>
    76c4:	80 91 84 01 	lds	r24, 0x0184
    76c8:	90 91 85 01 	lds	r25, 0x0185
    76cc:	0f c0       	rjmp	.+30     	; 0x76ec <main+0x2ec>
	   else if (address == 2)	ch = rstVect1 & 0xff;
    76ce:	c2 30       	cpi	r28, 0x02	; 2
    76d0:	d1 05       	cpc	r29, r1
    76d2:	29 f4       	brne	.+10     	; 0x76de <main+0x2de>
    76d4:	80 91 86 01 	lds	r24, 0x0186
    76d8:	90 91 87 01 	lds	r25, 0x0187
    76dc:	2c c0       	rjmp	.+88     	; 0x7736 <main+0x336>
	   else if (address == 3)	ch = rstVect1 >> 8;
    76de:	c3 30       	cpi	r28, 0x03	; 3
    76e0:	d1 05       	cpc	r29, r1
    76e2:	39 f4       	brne	.+14     	; 0x76f2 <main+0x2f2>
    76e4:	80 91 86 01 	lds	r24, 0x0186
    76e8:	90 91 87 01 	lds	r25, 0x0187
    76ec:	89 2f       	mov	r24, r25
    76ee:	99 27       	eor	r25, r25
    76f0:	22 c0       	rjmp	.+68     	; 0x7736 <main+0x336>
	   else if (address == 24)	ch = wdtVect0 & 0xff;
    76f2:	c8 31       	cpi	r28, 0x18	; 24
    76f4:	d1 05       	cpc	r29, r1
    76f6:	29 f4       	brne	.+10     	; 0x7702 <main+0x302>
    76f8:	80 91 88 01 	lds	r24, 0x0188
    76fc:	90 91 89 01 	lds	r25, 0x0189
    7700:	1a c0       	rjmp	.+52     	; 0x7736 <main+0x336>
	   else if (address == 25)	ch = wdtVect0 >> 8;
    7702:	c9 31       	cpi	r28, 0x19	; 25
    7704:	d1 05       	cpc	r29, r1
    7706:	29 f4       	brne	.+10     	; 0x7712 <main+0x312>
    7708:	80 91 88 01 	lds	r24, 0x0188
    770c:	90 91 89 01 	lds	r25, 0x0189
    7710:	ed cf       	rjmp	.-38     	; 0x76ec <main+0x2ec>
	   else if (address == 26)	ch = wdtVect1 & 0xff;
    7712:	ca 31       	cpi	r28, 0x1A	; 26
    7714:	d1 05       	cpc	r29, r1
    7716:	29 f4       	brne	.+10     	; 0x7722 <main+0x322>
    7718:	80 91 8a 01 	lds	r24, 0x018A
    771c:	90 91 8b 01 	lds	r25, 0x018B
    7720:	0a c0       	rjmp	.+20     	; 0x7736 <main+0x336>
	   else if (address == 27)	ch = wdtVect1 >> 8;
    7722:	cb 31       	cpi	r28, 0x1B	; 27
    7724:	d1 05       	cpc	r29, r1
    7726:	29 f4       	brne	.+10     	; 0x7732 <main+0x332>
    7728:	80 91 8a 01 	lds	r24, 0x018A
    772c:	90 91 8b 01 	lds	r25, 0x018B
    7730:	dd cf       	rjmp	.-70     	; 0x76ec <main+0x2ec>
	   // Since RAMPZ should already be set, we need to use EPLM directly.
	   // read a Flash and increment the address (may increment RAMPZ)
	   __asm__ ("elpm %0,Z\n" : "=r" (ch) : "z" (address));
	#else
	   // read a Flash byte and increment the address
	   __asm__ ("lpm %0,Z\n" : "=r" (ch) : "z" (address));
    7732:	fe 01       	movw	r30, r28
    7734:	84 91       	lpm	r24, Z+
	   //ch = *((uint8_t *)(0x4000 + address));
	#endif
#endif
	   }
	   address++;
    7736:	21 96       	adiw	r28, 0x01	; 1
           putch(ch);
    7738:	18 d0       	rcall	.+48     	; 0x776a <putch>
         } while (--length);
    773a:	01 50       	subi	r16, 0x01	; 1
    773c:	10 40       	sbci	r17, 0x00	; 0
    773e:	09 f0       	breq	.+2      	; 0x7742 <main+0x342>
    7740:	b7 cf       	rjmp	.-146    	; 0x76b0 <main+0x2b0>
    7742:	ce 0c       	add	r12, r14
    7744:	df 1c       	adc	r13, r15
    7746:	0e c0       	rjmp	.+28     	; 0x7764 <main+0x364>
      }
    }

    /* Get device signature bytes  */
    else if(ch == STK_READ_SIGN) {
    7748:	85 37       	cpi	r24, 0x75	; 117
    774a:	39 f4       	brne	.+14     	; 0x775a <main+0x35a>
      // READ SIGN - return what Avrdude wants to hear
      verifySpace();
    774c:	2d d0       	rcall	.+90     	; 0x77a8 <verifySpace>
      putch(SIGNATURE_0);
    774e:	8e e1       	ldi	r24, 0x1E	; 30
    7750:	0c d0       	rcall	.+24     	; 0x776a <putch>
      putch(SIGNATURE_1);
    7752:	85 e9       	ldi	r24, 0x95	; 149
    7754:	0a d0       	rcall	.+20     	; 0x776a <putch>
      putch(SIGNATURE_2);
    7756:	8f e0       	ldi	r24, 0x0F	; 15
    7758:	a7 ce       	rjmp	.-690    	; 0x74a8 <main+0xa8>
    }
    else if (ch == STK_LEAVE_PROGMODE) { /* 'Q' */
    775a:	81 35       	cpi	r24, 0x51	; 81
    775c:	11 f4       	brne	.+4      	; 0x7762 <main+0x362>
      // Adaboot no-wait mod
      watchdogConfig(WATCHDOG_16MS);
    775e:	8c e0       	ldi	r24, 0x0C	; 12
    7760:	1d d0       	rcall	.+58     	; 0x779c <watchdogConfig>
      verifySpace();
    }
    else {
      // This covers the response to commands like STK_ENTER_PROGMODE
      verifySpace();
    7762:	22 d0       	rcall	.+68     	; 0x77a8 <verifySpace>
    }
    putch(STK_OK);
    7764:	80 e1       	ldi	r24, 0x10	; 16
    7766:	01 d0       	rcall	.+2      	; 0x776a <putch>
    7768:	92 ce       	rjmp	.-732    	; 0x748e <main+0x8e>

0000776a <putch>:
  }
}

void putch(char ch) {
    776a:	98 2f       	mov	r25, r24
#ifndef SOFT_UART
  while (!(UART_SRA & _BV(UDRE0)));
    776c:	80 91 c0 00 	lds	r24, 0x00C0
    7770:	85 ff       	sbrs	r24, 5
    7772:	fc cf       	rjmp	.-8      	; 0x776c <putch+0x2>
  UART_UDR = ch;
    7774:	90 93 c6 00 	sts	0x00C6, r25
      [uartBit] "I" (UART_TX_BIT)
    :
      "r25"
  );
#endif
}
    7778:	08 95       	ret

0000777a <getch>:
      [uartBit] "I" (UART_RX_BIT)
    :
      "r25"
);
#else
  while(!(UART_SRA & _BV(RXC0)))
    777a:	80 91 c0 00 	lds	r24, 0x00C0
    777e:	87 ff       	sbrs	r24, 7
    7780:	fc cf       	rjmp	.-8      	; 0x777a <getch>
    ;
  if (!(UART_SRA & _BV(FE0))) {
    7782:	80 91 c0 00 	lds	r24, 0x00C0
    7786:	84 fd       	sbrc	r24, 4
    7788:	01 c0       	rjmp	.+2      	; 0x778c <getch+0x12>
}
#endif

// Watchdog functions. These are only safe with interrupts turned off.
void watchdogReset() {
  __asm__ __volatile__ (
    778a:	a8 95       	wdr
       * don't care that an invalid char is returned...)
       */
    watchdogReset();
  }
  
  ch = UART_UDR;
    778c:	80 91 c6 00 	lds	r24, 0x00C6
#ifdef LED_DATA_FLASH
  LED_PORT ^= _BV(LED);
#endif

  return ch;
}
    7790:	08 95       	ret

00007792 <uartDelay>:
#if UART_B_VALUE > 255
#error Baud rate too slow for soft UART
#endif

void uartDelay() {
  __asm__ __volatile__ (
    7792:	97 e8       	ldi	r25, 0x87	; 135
    7794:	9a 95       	dec	r25
    7796:	f1 f7       	brne	.-4      	; 0x7794 <uartDelay+0x2>
    7798:	08 95       	ret
    "1:dec r25\n"
    "brne 1b\n"
    "ret\n"
    ::[count] "M" (UART_B_VALUE)
  );
}
    779a:	08 95       	ret

0000779c <watchdogConfig>:
  );
}

void watchdogConfig(uint8_t x) {
#if 1
  WDTCSR = _BV(WDCE) | _BV(WDE);
    779c:	e0 e6       	ldi	r30, 0x60	; 96
    779e:	f0 e0       	ldi	r31, 0x00	; 0
    77a0:	98 e1       	ldi	r25, 0x18	; 24
    77a2:	90 83       	st	Z, r25
  WDTCSR = x;
    77a4:	80 83       	st	Z, r24
#endif
}
    77a6:	08 95       	ret

000077a8 <verifySpace>:
  do getch(); while (--count);
  verifySpace();
}

void verifySpace() {
  if (getch() != CRC_EOP) {
    77a8:	e8 df       	rcall	.-48     	; 0x777a <getch>
    77aa:	80 32       	cpi	r24, 0x20	; 32
    77ac:	19 f0       	breq	.+6      	; 0x77b4 <verifySpace+0xc>
    watchdogConfig(WATCHDOG_16MS);    // shorten WD timeout
    77ae:	8c e0       	ldi	r24, 0x0C	; 12
    77b0:	f5 df       	rcall	.-22     	; 0x779c <watchdogConfig>
    77b2:	ff cf       	rjmp	.-2      	; 0x77b2 <verifySpace+0xa>
    while (1)			      // and busy-loop so that WD causes
      ;				      //  a reset and app start.
  }
  putch(STK_INSYNC);
    77b4:	84 e1       	ldi	r24, 0x14	; 20
}
    77b6:	d9 cf       	rjmp	.-78     	; 0x776a <putch>
    "ret\n"
    ::[count] "M" (UART_B_VALUE)
  );
}

void getNch(uint8_t count) {
    77b8:	1f 93       	push	r17

000077ba <getNch>:
    77ba:	18 2f       	mov	r17, r24
  do getch(); while (--count);
    77bc:	de df       	rcall	.-68     	; 0x777a <getch>
    77be:	11 50       	subi	r17, 0x01	; 1
    77c0:	e9 f7       	brne	.-6      	; 0x77bc <getNch+0x2>
  verifySpace();
    77c2:	f2 df       	rcall	.-28     	; 0x77a8 <verifySpace>
}
    77c4:	1f 91       	pop	r17
    77c6:	08 95       	ret

000077c8 <appStart>:

void appStart(uint8_t rstFlags) {
  // save the reset flags in the designated register
  //  This can be saved in a main program by putting code in .init0 (which
  //  executes before normal c init code) to save R2 to a global variable.
  __asm__ __volatile__ ("mov r2, %0\n" :: "r" (rstFlags));
    77c8:	28 2e       	mov	r2, r24

  watchdogConfig(WATCHDOG_OFF);
    77ca:	80 e0       	ldi	r24, 0x00	; 0
    77cc:	e7 df       	rcall	.-50     	; 0x779c <watchdogConfig>
  __asm__ __volatile__ (
    77ce:	ec e0       	ldi	r30, 0x0C	; 12
    77d0:	ff 27       	eor	r31, r31
    77d2:	09 94       	ijmp
