:02000000FFCD32
:101C000011248FEF94E09EBF8DBF84B714BE81FF77
:101C100081D18091F20080688093F2008091F2007F
:101C200082618093F2005BD182E08093C00088E102
:101C30008093C10086E08093C20089E18093C40054
:101C40008CE052D188249924EE24FF245524539407
:101C500051E0652E712C42E0A42E34EA432E22EA94
:101C6000322E9DEC292E2FD1813461F42CD1182FE6
:101C700041D1123829F1113811F485E001C083E017
:101C80001AD116C1823411F484E103C0853419F4E9
:101C900085E038D10DC1853579F415D1E82EFF24C2
:101CA00012D1082F10E0102F00270E291F29000F36
:101CB000111F20D17801FCC0863521F484E022D1A7
:101CC00080E0DECF843609F093C0FDD090E0D82EBE
:101CD000CC24F9D0C80ED11CF6D0B82EE60100E015
:101CE00011E0F1D0F80181938F012197D1F711BC58
:101CF0008F2D992782BD82B58695930102C0220F50
:101D0000331F8A95E2F7C40182239323892B59F468
:101D1000F6E4BF1641F4822A932A84E98FBBE2E9F4
:101D2000EFBB00000000E6D0F5E4BF16D9F416C002
:101D300088EFE81681E0F80608F0BAC0E1BC089424
:101D4000E11CF11C8F2D992782BDC050DF4F888187
:101D500080BDE4E0EFBBAFBACF5FD040CC15DD056E
:101D600038F3A6C0E114F10449F5809100012091F7
:101D7000010130E0322F222790E0282B392B3093BD
:101D8000450120934401409108018091090190E0B0
:101D9000982F882750E0842B952B909347018093B0
:101DA00046012450304020930801232F33272093ED
:101DB00009018FEF8093000120920101E0E0F1E042
:101DC00011BC808180BD51BC818180BDA1BC82815C
:101DD00080BD83E081BD838180BD8E2F8E0D81BD4E
:101DE0004FBA3FBA349681E0E034F80749F760C053
:101DF000843709F04FC067D090E0D82ECC2463D050
:101E0000C80ED11C60D0182F75D01534B1F4E7017D
:101E10008601C1BD21968D2F992782BD5FBA000032
:101E20000000E1E0C83FDE0710F08FEF01C080B591
:101E300042D00150104069F72AC0E701860120977F
:101E400029F480914401909145011CC0C130D10515
:101E500029F480914401909145010FC0C830D1050B
:101E600029F480914601909147010CC0C930D105F9
:101E700039F48091460190914701892F992702C03A
:101E8000FE018491219617D001501040C1F6EC0C50
:101E9000FD1C0EC0853739F42DD08EE10CD083E9BE
:101EA0000AD08AE0EDCE813511F488E01DD022D031
:101EB00080E101D0D8CE982F8091C00085FFFCCF63
:101EC0009093C60008958091C00087FFFCCF809159
:101ED000C00084FD01C0A8958091C60008959FE1CF
:101EE0009A95F1F708950895E0E6F0E098E190837F
:101EF00080830895E8DF803219F088E0F5DFFFCFB6
:101F000084E1D9CF1F93182FDEDF1150E9F7F2DFFC
:101F10001F910895282E80E0E7DFE4E0FF27099471
:021FFA000005E0
:0400000300001C00DD
:00000001FF
